:10000000000000308A009A28FF00030E8301A1003F
:100010000A08A0008A010408A2007708A300780853
:10002000A4007908A5007A08A6007B08A70083131E
:1000300083120B1E1D288B183028220884002308E9
:10004000F7002408F8002508F9002608FA00270818
:10005000FB0020088A00210E8300FF0E7F0E09009E
:100060008A110A123328A9018B108A110A121D283D
:1000700083160813831208130830F80000000000EC
:100080000000F8175228F813BD0C03180817031CBA
:100090000813781752287813F80B44280000000042
:1000A0000000081750308400840B54280000F81B0F
:1000B0004328781B4B2800343D3084000008031986
:1000C0006E280630F800F701F70B6428F80B632858
:1000D0007B30F700F70B6A28800B61280034A030D2
:1000E000BD0038202830BD005C20A330BD00382082
:1000F000A130BD0038201430BD005C20A330BD000D
:1001000038200C30BD0038201430BD005C208A112E
:100110000A12BC2894138C113D0893000230941BE2
:1001200098288C1D912800308316111B01308312F2
:10013000F800003484011F308305063083169F00C9
:10014000FF308312BC00BC153C0883168700831265
:100150003C163C0883168700313093002830831208
:100160009400831694171413081383120817AB0115
:10017000AA010130A9006F28831685128312851207
:100180003C113C0883168700831207110C3097003E
:100190000030F800063892000A308316920083126D
:1001A0008D1194138316111483128D1DD928831673
:1001B000CF28941FDD288316CF288316111CE22830
:1001C0008312DD2876308312BD008A20F030BD0016
:1001D0008A20831611151119EB2883122D0895001A
:0A01E0000130A9008316CF28F4288F
:02400E00323747
:00000001FF
;PIC16F877
