:10000000000000308A00DC28FF00030E8301A100FD
:100010000A08A0008A010408A2007708A300780853
:10002000A4007908A5007A08A6007B08A70083131E
:1000300083128B1E1D280B193028220884002308E8
:10004000F7002408F8002508F9002608FA00270818
:10005000FB0020088A00210E8300FF0E7F0E09009E
:100060008A110A123328763081000130AF000B115B
:100070008A110A121D2833308400000803194D2804
:100080000630F800F701F70B4328F80B42287B30C5
:10009000F700F70B4928800B402800340530F700A3
:1000A000F71D5A2807308101813084000008C039CB
:1000B0000F3880006400813084000008C039770464
:1000C00080000030831687008312B100B1008316D0
:1000D000870083128701A901831686128312861670
:1000E0000230B200FA30B3003B20B20B7228831604
:1000F0008612831286120230B200FA30B3003B201F
:10010000B20B7D28A90A2908053C03186C28C030C9
:100110008B048A110A12E82833308400000803197E
:100120009628942800000000800B92280034AF0825
:10013000031D9B289728AF012C08F7002A08F80018
:100140000319A6280310F70CF80BA2280030771823
:100150000130013C031DC02831123108831687008D
:10016000831207120730B2007C30B3008C20B20B30
:10017000B428311231088316870083120716D3285A
:100180003112310883168700831207160730B20038
:100190007C30B3008C20B20BC82831123108831692
:1001A000870083120712AA03A90A2908073C03182B
:1001B00097288A110A12062984011F308305063008
:1001C00083169F00073083129F00FF30B1004E2836
:1001D000A8012808013C031C09290C3081008B165A
:1001E0000730AA002808F700F7080319FC28013097
:1001F0007702031900290529A901E030AC0005297F
:100200000230A9000430AC00052997288B12A80AF7
:10021000E9280730B2007C30B3008C20B20B0B29E8
:10022000311231088316870083120712E828172934
:02400E00323747
:00000001FF
;PIC16F877A
