:10000000000000308A00F328FF00030E8301A100E6
:100010000A08A0008A010408A2007708A300780853
:10002000A4007908A5007A08A6007B08A70083131E
:1000300083128B1E1D280B193028220884002308E8
:10004000F7002408F8002508F9002608FA00270818
:10005000FB0020088A00210E8300FF0E7F0E09009E
:100060008A110A123328763081000130B0000B115A
:100070008A110A121D2834308400000803194D2803
:100080000630F800F701F70B4328F80B42287B30C5
:10009000F700F70B4928800B402800343408F8019A
:1000A0003302031856283308F7006228F701083096
:1000B000B500B30DF70D340877020318F700F80DFB
:1000C000B50B59288A110A121A290530F700F71DB5
:1000D000712807308101813084000008C0390F3851
:1000E00080006400813084000008C03977048000FB
:1000F0000030831687008312B200B2008316870097
:1001000083128701A9018316861283128616023094
:10011000B300FA30B4003B20B30B89288316861253
:10012000831286120230B300FA30B4003B20B30BC6
:100130009428A90A2908053C03188328C0308B0499
:100140008A110A1242293430840000080319AD28AC
:10015000AB2800000000800BA9280034B008031D64
:10016000B228AE28B0012C08F7002A08F8000319BD
:10017000BD280310F70CF80BB928003077180130B0
:10018000013C031DD72832123208831687008312E0
:1001900007120730B3007C30B400A320B30BCB2888
:1001A000321232088316870083120716EA283212A9
:1001B000320883168700831207160730B3007C309D
:1001C000B400A320B30BDF28321232088316870055
:1001D00083120712AA03A90A2908073C0318AE28AC
:1001E0008A110A12602984011F30830506308316A4
:1001F0009F00073083129F00FF30B200AB01AD01BA
:100200002908C73C031C14292908C73C031C0D29D5
:10021000A90A1930B4003B2004292908C73C031C53
:1002200013290130AB070029A9012B08B3000630C0
:10023000B4004E287708AB00AB08031D2129AD019F
:1002400041292B0B26290430AD0041292B08023C03
:10025000031D2D290830AD0041292B08033C031D47
:1002600034290C30AD0041292B08043C031D3B29E7
:100270001030AD0041292B08053C031D41291430E5
:10028000AD006528A8012808013C031C63290C3037
:1002900081008B160730AA002808F700F708031919
:1002A00056290130770203195A295F29A901E13043
:1002B000AC005F290230A9002D08AC005F29AE28F0
:1002C0008B12A80A43290730B3007C30B400A32066
:1002D000B30B652932123208831687008312071286
:0402E0004229712915
:02400E00323747
:00000001FF
;PIC16F877A
